:020000040800F2
:1000000040D30120DD9F0008AD0A0008AF0A0008B8
:10001000B30A0008B70A0008BB0A00080000000085
:10002000000000000000000000000000BF0A0008FF
:10003000C10A0008000000003B23020879CC000838
:10004000F79F0008F79F0008F79F0008F79F000838
:10005000F79F0008F79F00083B090008C109000846
:10006000F79F0008F79F0008F79F0008F79F000818
:10007000F79F0008F79F0008F79F0008F79F000808
:10008000F79F0008F79F0008F79F0008F79F0008F8
:10009000F79F0008F79F0008F79F0008F79F0008E8
:1000A000F79F0008F79F0008F79F0008F79F0008D8
:1000B000F79F0008F79F0008DDCA0108F79F0008B6
:1000C000F79F0008F79F0008F79F0008F79F0008B8
:1000D000F79F000867CE0008F79F0008D7050008C3
:1000E0002F080008F79F0008F79F0008F79F0008F7
:1000F000F79F0008F79F0008F79F0008F79F000888
:10010000F79F000801900008F79F0008F79F00087C
:10011000F79F0008F79F0008F79F0008F79F000867
:10012000F79F0008F79F0008F79F0008F79F000857
:10013000F79F0008F79F0008F79F0008F79F000847
:10014000F79F0008F79F0008F79F0008F79F000837
:10015000F79F0008F79F0008F79F0008F79F000827
:10016000F79F0008F79F0008F79F0008F79F000817
:10017000F79F0008F79F0008F79F0008F79F000807
:10018000F79F0008F79F000800F002F800F082F8DF
:100190000AA090E8000C82448344AAF10107DA45E2
:1001A00001D100F077F8AFF2090EBAE80F0013F0B2
:1001B000010F18BFFB1A43F001031847782404000D
:1001C000982404000A444FF0000C10F8013B13F08F
:1001D000070408BF10F8014B1D1108BF10F8015BA0
:1001E000641E05D010F8016B641E01F8016BF9D193
:1001F00013F0080F1EBF10F8014BAD1C0C1B09D1EA
:100200006D1E58BF01F801CBFAD505E014F8016B5B
:1002100001F8016B6D1EF9D59142D6D370470000ED
:100220000023002400250026103A28BF78C1FBD8FF
:10023000520728BF30C148BF0B607047662932F0B3
:10024000048064291FF0188575291FF01585782909
:100250001FF04E85632920F09283732920F0978345
:10026000002070471FB531F0E6FF9DE8030020F045
:10027000B7F820F09DFE04000020002131F0A0FA24
:10028000401C60600020002131F084FAE0601FBD56
:1002900010B510BD21F06FF91146FFF7E3FF00F034
:1002A00005F921F0BFFB03B4FFF7F2FF03BC0CF02C
:1002B00077FD000030BF72B6704762B6704780F3BA
:1002C000088870470EB50020F749087009F03EFE17
:1002D0000120F549087002A9F4481BF0ACFC11E0BC
:1002E000F348006808B9012000E00020F0490860E8
:1002F00002A8082164230022CDE90010114610460F
:100300001BF07DF8ECE70EB50BE025F001FC02A830
:10031000082105230022CDE90010114610461BF0EC
:100320006EF8F2E710B504461FF0E0FA10BDE14A9E
:100330001278521CDF4B1A70704730B58BB00446F0
:10034000002500BF12F07CFD0AA818F0E6FC0AAAFE
:100350000121084614F06FFD012108030AF0D6FCC4
:1003600024F0A8FB0AA80021AFF23D020223CDE948
:100370000032CDE902100A230A46CFA1CB481BF078
:100380007CFA00BF00BF00BF12F092FE054600BF1E
:1003900000BFCB480078401CC949087000BF00BFAF
:1003A000284612F089FE00BF00BF00BF0AA8032143
:1003B00000220592CDE90621089010464FF4006115
:1003C000CC22C04BCDE90132CDE903100720002338
:1003D000AFF2AF02BCA10090BF4819F075F80AA8AF
:1003E000032100220592CDE90621089010468021C4
:1003F0000C22BA4BCDE90132CDE9031004200023D1
:10040000AFF2FD02B6A10090B84819F05DF80AA855
:10041000032100220592CDE9062108901046802193
:100420000C22B34BCDE90132CDE9031005200023A6
:10043000AFF26F12AFA10090B14819F045F80AA9C8
:10044000B0481AF0B6FB00BF00BF00BF12F030FE8C
:10045000054600BF00BF9A480078401E98490870C2
:1004600008460078A0B9A8480088002809DD00BF28
:1004700000BF284612F020FE00BF00BF15F0C4F8F0
:100480000DE000BF00BF284612F016FE00BF06E0D8
:1004900000BF00BF284612F00FFE00BF00BF00BF24
:1004A0000AA9002019F064F90BB030BD8AB000240D
:1004B000A8200CF0EDFB4FF4A06009F0AFFD4FF465
:1004C000E1300CF07AFC4FF4E13009F0B1FC01F0BE
:1004D0009CF909F01FF908F065FE00F0FBFB09F03C
:1004E00075FB09F0A3FB00200CF01DFD0DF06AF96F
:1004F00086490122086886A10FF0AAFC83490122DF
:10050000486884A10FF0A4FC0DF001F906F02FFC5F
:1005100009A814F067FA00BF00BF00BF12F0C8FDC1
:10052000044600BF00BF66480078401C644908705C
:1005300000BF00BF204612F0BFFD00BF00BF00BFDC
:1005400009A8032100220592CDE906210890104652
:100550004FF480616622704BCDE90132CDE9031082
:1005600003200023AFF22D226CA10090654818F003
:10057000ABFF00BF00BF00BF12F09AFD044600BFF2
:1005800000BF4F480078401E4D490870084600786B
:10059000A0B95D480088002809DD00BF00BF2046E3
:1005A00012F08AFD00BF00BF15F02EF80DE000BF6D
:1005B00000BF204612F080FD00BF06E000BF00BF74
:1005C000204612F079FD00BF00BF00BF09A814F05B
:1005D000D2FC00BFFEE73EB514F09AFA40F2255176
:1005E00051480BF063FD002808D04F480BF09CFCED
:1005F000C4B25B2C03D101204C49087014E15D2C7E
:1006000050D14B494BA01FF08BFE48B90020284920
:10061000091D086001204949087049490870DBE05C
:10062000434948A01FF07CFE50B901202049091D14
:100630000860022041490870012041490870CBE060
:100640003B4943A01FF06CFE50B901201849091D19
:100650000860032039490870012039490870BBE05F
:1006600033493DA01FF05CFE48B901203C490860B9
:10067000042032490870012031490870ACE02C4850
:1006800000783028CBDD2A48007839280BDA284852
:100690000078312866D0322873D033287FD03428B0
:1006A0006CD18AE0AEE097E0040000206C400020AE
:1006B0008C02424208000020746D7231000000007C
:1006C000FC0100206C200020456D77696E64656D2B
:1006D0006F207461736B0000A81F0020E41A0020D3
:1006E000546F756368207461736B0000201A0020DA
:1006F000A81D00204C656430207461736B000000FD
:10070000E41C00205C090020C00100202CA901206D
:10071000303A0000313A0000200A00207374617200
:1007200074207461736B0000004800408600002054
:100730007053002073797374656D0000050000200C
:100740000600002070616765486F6D65000000005D
:100750007368757965000000646973706C61790075
:10076000A4024342B848011F0A1F131FCDE900210C
:100770000290083AB5A1BA481FF0AAFB2BE000E0AE
:100780000DE0B14914310A1F101F031FCDE90121EB
:1007900000900C3AADA1B2481FF09AFB1BE0AA49A9
:1007A00028310A1F101F031FCDE9012100900C3AC8
:1007B000A6A1AB481FF08CFB0DE0A3493C310A1FFA
:1007C000101F031FCDE9012100900C3A9FA1A448FE
:1007D0001FF07EFB00BF00BF0020A249087009E0A7
:1007E00000209F499F4A127888549E480078401CF8
:1007F0009C4908709B4800782028F1DB002099492B
:10080000087011E09748007800280DDD95480078C1
:10081000C82809DC93480078401E91490C5491483F
:100820000078401C8F49087014F083F93EBD10B564
:1008300014F06EF94FF480500CF0F8F900283BD01A
:100840004FF4805188480AF025F801282FD10CF088
:1008500078FA4FF4805184480AF01CF8012826D118
:1008600082A01FF099F98348006808B9012000E0D0
:100870000020804908608048007830B901207E4916
:10088000087000207D49087011E000207A49087046
:100890007A4800781E2191FBF0F079490860002029
:1008A000764908707648016876A01FF075F94FF414
:1008B00080500CF0C6F93DE04FF480400CF0B6F9E2
:1008C000002837D04FF48041674809F0E3FF012842
:1008D0002CD10CF036FA4FF48041634809F0DAFF6E
:1008E000012823D16B48006808B9012000E00020EE
:1008F000684908606048007830B901205E49087096
:1009000000205E49087011E000205B4908705B48D8
:1009100000781E2191FBF0F05949086000205749EA
:1009200008705748016857A01FF036F94FF480400F
:100930000CF087F914F0FDF810BD10B514F0E8F8CC
:1009400001200CF073F9002837D00121524809F03A
:10095000A1FF01282ED10CF0F4F901214E4809F035
:1009600099FF012826D14348006808B9012000E01A
:1009700000204049086049A01FF00EF93E48007869
:1009800030B901203C49087000203C49087011E052
:10099000002039490870394800781E2191FBF0F099
:1009A000374908600020354908703548016835A08E
:1009B0001FF0F2F801200CF044F914F0BAF810BD61
:1009C00010B514F0A5F802200CF030F9002837D04B
:1009D0000221314809F05EFF01282ED10CF0B1F957
:1009E00002212D4809F056FF012826D12148006830
:1009F00008B9012000E000201E49086029A01FF06E
:100A0000CBF81D48007830B901201B490870002040
:100A10001A49087011E0002017490870174800783B
:100A20001E2191FBF0F01649086000201349087060
:100A30001348016813A01FF0AFF802200CF001F971
:100A400014F077F810BD0000C0C90120252A642CDD
:100A500025642C25642C25642C25642C2564000039
:100A6000705300208600002000140240706631326E
:100A70000D0A0000A40243420700002008000020E5
:100A8000000000207465737453706565643A2564D2
:100A90000D0A000090024242001802407067300DBB
:100AA0000A0000007067310D0A000000704700BFA7
:100AB000FEE700BFFEE700BFFEE700BFFEE77047AE
:100AC000704700000CB50020019000907648006847
:100AD00040F480307449086000BF7348006800F437
:100AE000003000900198401C0190009818B90198BE
:100AF000B0F5A04FF1D16C48006800F4003010B19F
:100B00000120009001E0002000900098012846D1CB
:100B100065484030006840F08050634940310860CB
:100B20006248006840F44040604908605E48083010
:100B300000685D49083108600846006840F40040DC
:100B400008600846006840F4A05008605848091F33
:100B50000860081F006840F08070091F086000BF2F
:100B60005148006800F000700028F9D040F205708C
:100B7000504908604C480830006820F003004A499A
:100B8000083108600846006840F00200086000BFB5
:100B900045480830006800F00C000828F8D10CBD6A
:100BA00010B54548006840F47000434908603E486D
:100BB000006840F001003C49086000203A490831D3
:100BC0000860394800683D490840374908603C489A
:100BD000091D0860081F006820F48020091F0860B4
:100BE000002031490C310860FFF76CFF4FF00060C6
:100BF00031498039086010BD70B500200022022301
:100C000000240221284D08352D6805F00C0020B184
:100C1000042806D0082834D107E02A4D2A4E356032
:100C200033E02A4D284E35602FE01F4D2D1D2D68D5
:100C3000C5F380541C4D2D1D2D6805F03F0154B1A6
:100C4000224DB5FBF1F5184E361D3668C6F38816F1
:100C500005FB06F209E01B4DB5FBF1F5124E361D02
:100C60003668C6F3881605FB06F20F4D2D1D2D685C
:100C7000C5F301456D1C6B00B2FBF3F5124E3560F8
:100C800003E0104D104E356000BF00BF064D083523
:100C90002D68C5F303150E4E705D0B4D2D68C540D4
:100CA000094E356070BD0000003802400070004001
:100CB00008544007003C024088ED00E0FFFFF6FECC
:100CC000103000240024F4000C00002000127A00F0
:100CD000100000201CB5012150200AF017F8182040
:100CE000009001208DF8040000208DF806000320FC
:100CF0008DF8050001208DF807006946094809F0C4
:100D000067FD1821074809F0DFFD4FF400700090DF
:100D10006946054809F05CFD4FF40071024809F08E
:100D2000D3FD1CBD001002400018024001B5BDF803
:100D300000000090BDF80000F749088008BD01B52B
:100D4000BDF800000090BDF80000F349891C088040
:100D500008BD08B5F048801C00880090BDF8000070
:100D600008BD03B5BDF80000EB490880BDF80400DC
:100D7000891C08800CBD01B5BDF80000FFF7D6FF47
:100D800005200BF0B4FFFFF7E4FF08BDE34800893E
:100D9000E14908807047E049891C0880704730B5F8
:100DA000014601F01F04C1F34513CA0AE50205EB31
:100DB00043151544A8B230BD00BF011EA0F10102C9
:100DC000D0B2FAD1704730B504460D46D34880887A
:100DD00049F24131884205D0D048808845F210312F
:100DE000884214D1CD494889FFF7A0FF2012FFF7B0
:100DF000A6FFE0B2FFF7A3FFC8498889FFF796FF77
:100E00002812FFF79CFFE8B2FFF799FF5DE0C348A7
:100E1000808846F6040188421DD1C04880790128A7
:100E200004D1BE480088401E001B84B2BB494889DB
:100E3000FFF77CFF2012FFF782FFE0B2FFF77FFF92
:100E4000B6498889FFF772FF2812FFF778FFE8B2EA
:100E5000FFF775FF39E0B148808845F210518842AC
:100E600020D1AE494889FFF761FF2012FFF767FFE5
:100E7000AA494989491C88B2FFF758FFE0B2FFF739
:100E80005EFFA6498889FFF751FF2812FFF757FF39
:100E9000A2498989491C88B2FFF748FFE8B2FFF7E9
:100EA0004EFF12E09D488079012804D19B480088BC
:100EB000401E001B84B2994948892146FFF751FF23
:100EC000964988892946FFF74CFF30BD3EB5044658
:100ED0000D46002002900190009090480088A042AA
:100EE00003DD8E484088A84201DC00203EBD294633
:100EF0002046FFF768FF8948808849F241318842DF
:100F00000BD08648808846F60401884205D0834885
:100F1000808845F21031884203D12E20FFF706FF6A
:100F20000DE07E48808845F21051884204D14FF48C
:100F30003850FFF7FBFE02E02220FFF7F7FE77486C
:100F4000808849F22031884202D10220FFF734FF25
:100F5000FFF7FFFE0220FFF72FFFFFF7FAFE0290D8
:100F60006E48808849F2413188420BD06B488088B6
:100F700045F21031884205D06848808845F210510A
:100F8000884210D10220FFF717FFFFF7E2FE009022
:100F9000BDF80800C0B20190BDF804004FF6FF7123
:100FA00001EA002001905D48808849F2253188429D
:100FB00016D05A48808844F23551884210D057489C
:100FC0008088091F88420BD0544880884BF2055115
:100FD000884205D0514880884CF20551884202D1A0
:100FE000BDF8080082E74D48808849F241318842C7
:100FF0000BD04A48808845F21031884205D04748D6
:10100000808845F2105188420DD1BDF80800C01209
:10101000C002BDF80410891240EA4110BDF800106A
:1010200040EAE12062E7BDF80800FFF7B8FE5DE79F
:1010300000B53A48808849F2413188420BD03748A0
:10104000808846F60401884205D03448808845F2FD
:101050001031884203D12920FFF768FE0FE02F48A6
:10106000808845F21051884204D14FF42450FFF794
:101070005DFE04E040F273110720FFF772FE00BD31
:1010800000B52648808849F2413188420BD0234878
:10109000808846F60401884205D02048808845F2C1
:1010A0001031884203D12820FFF740FE0EE01B4894
:1010B000808845F21051884204D14FF42050FFF748
:1010C00035FE03E000210720FFF74BFE00BDF0B521
:1010D00005460024002711488079012823D10F48B4
:1010E000808846F6040188421DD0082D1AD2DFE818
:1010F00005F00406080A0C0E1017062512E0072555
:1011000010E004250EE005250CE001250AE000258D
:1011100008E0032506E00000FE1F006CA040002050
:10112000022500BF00BFFE48808849F24131884255
:1011300011D0FB48808846F6040188420BD0F8485D
:10114000808845F21031884205D0F548808845F204
:10115000105188427ED1082D1CD2DFE805F004062C
:10116000090C0F12151800BF14E044F0800411E0C0
:1011700044F040040EE044F0C0040BE044F02004CE
:1011800008E044F0600405E044F0A00402E044F00C
:10119000E00400BF00BFE248808845F21051884259
:1011A00002D14FF4585700E03627DD48808845F2D9
:1011B0001031884207D0DA48808845F210518842C1
:1011C00001D044F00804D648808846F604018842DD
:1011D00001D144F0020421463846FFF7C2FD04F075
:1011E000200068B1CE480088CD494988884214DA89
:1011F000CB4806884088CA490880084646800CE0EB
:10120000C7480088C6494988884206DDC448068820
:101210004088C349088008464680C148808845F216
:101220001051884254D1BE494889FFF77FFD002004
:10123000FFF785FDBA494989491C88B2FFF776FD59
:101240000020FFF77CFDB6494989891C88B2FFF769
:101250006DFD00E06BE0B2490988491EC1F30F2023
:10126000FFF76DFDAE494989C91C88B2FFF75EFDE5
:10127000AB490978491EC8B2FFF761FDA8498889C2
:10128000FFF754FD0020FFF75AFDA5498989491C45
:1012900088B2FFF74BFD0020FFF751FDA049898977
:1012A000891C88B2FFF742FD9D494988491EC1F358
:1012B0000F20FFF744FD9A498989C91C88B2FFF7BE
:1012C00035FD97498978491EC8B2FFF738FD55E0CA
:1012D00093494889FFF72AFD0020FFF730FD0020E1
:1012E000FFF72DFD8E490988491EC1F30F20FFF736
:1012F00026FD8B490978491EC8B2FFF720FD8849B1
:101300008889FFF713FD0020FFF719FD0020FFF784
:1013100016FD83494988491EC1F30F20FFF70FFDD1
:101320007F498978491EC8B2FFF709FD26E0082DDC
:101330001CD2DFE805F004070A0D0F12151844F05F
:10134000300413E044F0100410E044F020040DE0F9
:1013500000BF0BE044F0380408E044F0280405E046
:1013600044F0180402E044F0080400BF00BF032763
:1013700044F4805421463846FFF7F3FCF0BD30B505
:1013800004460D4629462046FFF71DFDFFF7FEFCEB
:10139000644800886449088030BD70B504460D4635
:1013A00016465F48808849F24131884205D05C4842
:1013B000808845F21031884214D159494889FFF795
:1013C000B5FC2012FFF7BBFCE0B2FFF7B8FC5449B4
:1013D0008889FFF7ABFC2812FFF7B1FCE8B2FFF7F2
:1013E000AEFC5DE04E48808845F21051884220D125
:1013F0004B494889FFF79AFC2012FFF7A0FC4849A7
:101400004989491C88B2FFF791FCE0B2FFF797FCCD
:1014100043498889FFF78AFC2812FFF790FC40496E
:101420008989491C88B2FFF781FCE8B2FFF787FC85
:1014300036E03B48808846F6040188421DD1384892
:101440008079012804D136480088401E001B84B2F0
:1014500033494889FFF76AFC2012FFF770FCE0B2BD
:10146000FFF76DFC2E498889FFF760FC2812FFF713
:1014700066FCE8B2FFF763FC12E029488079012896
:1014800004D127480088401E001B84B224494889A3
:101490002146FFF766FC224988892946FFF761FC4F
:1014A0001F4800892049891E0880881C068070BD5D
:1014B00010B50446002C58D119498871F0200880D5
:1014C0004FF4A07048800846808849F24131884234
:1014D0000BD01348808846F60401884205D0104896
:1014E000808845F21031884220D12C200C49088197
:1014F0002A2048812B2088810846808846F60401EE
:10150000884205D00648808845F21031884206D1CD
:101510004FF4A070024908804FF4F07048807FE0DB
:10152000A0400020200000200020006CFE488088A1
:1015300045F21051884210D14FF43050FA490881D9
:101540004FF4285048814FF42C5088814FF4F070AC
:1015500008804FF44870488062E02220F2490881F8
:1015600020204881212088815AE00120EE4988719D
:101570004FF4A0700880F02048800846808849F227
:101580004131884205D0E848808845F210318842D0
:1015900007D12C20E44908812A2048812B2088810A
:1015A0002BE0E148808846F60401884207D12C20D0
:1015B000DD4908812B2048812A2088811DE0DA48F6
:1015C000808845F21051884210D14FF43050D649EE
:1015D00008814FF4285048814FF42C5088814FF4F3
:1015E000487008804FF4F070488006E02220CE4911
:1015F00008812120488120208881CB48808846F6B8
:101600000401884205D0C848808845F210318842DC
:1016100006D14FF4F070C44908804FF4A0704880A0
:101620000320FFF754FD10BD2DE9FF4F04460D4682
:1016300016461F46A019401E86B2E819401E87B202
:10164000B948808849F2413188420BD0B648808839
:1016500045F21031884205D0B348808846F604012F
:10166000884220D1B0494889FFF760FB2012FFF77C
:1016700066FBE0B2FFF763FB3012FFF760FBF0B2EE
:10168000FFF75DFBA8498889FFF750FB2812FFF799
:1016900056FBE8B2FFF753FB3812FFF750FBF8B2E6
:1016A000FFF74DFB7DE0A048808845F2105188424D
:1016B00044D19D494889FFF739FB2012FFF73FFBD2
:1016C00099494989491C88B2FFF730FBE0B2FFF71E
:1016D00036FB95494989891C88B2FFF727FB3012F0
:1016E000FFF72DFB90494989C91C88B2FFF71EFB03
:1016F000F0B2FFF724FB8C498889FFF717FB28120B
:10170000FFF71DFB88498989491C88B2FFF70EFB4A
:10171000E8B2FFF714FB84498989891C88B2FFF776
:1017200005FB3812FFF70BFB7F498989C91C88B27A
:10173000FFF7FCFAF8B2FFF702FB32E07A48807953
:1017400001280ED1A846B94677480088801B401E64
:101750001FFA80FA74480088001B401E1FFA80FBA5
:1017600003E0A046B146AA46BB4650200390512054
:101770000290522001905320009041460398FFF7B9
:10178000F0FA49460298FFF7ECFA51460198FFF744
:10179000E8FA59460098FFF7E4FA29462046FFF791
:1017A00012FBBDE8FF8F70B5044600265E48058831
:1017B000408845435C48808846F60401884216D13B
:1017C00059488079012812D10020574988712A2070
:1017D00048812B20888100210846FFF7F4FA012078
:1017E000514988712B2048812A20888103E00021FB
:1017F0000846FFF7E8FAFFF7C9FA002602E04B486F
:101800000480761CAE42FAD370BD00B5A1B00020B2
:1018100020900121782009F079FA0121084609F089
:10182000ADFA4FF480601E9001208DF87C000020FE
:101830008DF87E0002208DF87D0001208DF87F005C
:101840001EA93B4808F0C4FF4CF233701E900220E2
:101850008DF87C0000208DF87E0003208DF87D003F
:1018600001208DF87F001EA9324808F0B1FF4FF625
:1018700080701E9002208DF87C0000208DF87E0084
:1018800003208DF87D0001208DF87F001EA92A48D5
:1018900008F09EFF04201E9002208DF87C0000209E
:1018A0008DF87E0003208DF87D0001208DF87F00EB
:1018B0001EA9224808F08CFF4FF480501E90022091
:1018C0008DF87C0000208DF87E0003208DF87D00CF
:1018D00001208DF87F001EA9184808F079FF0C221E
:1018E0000021144808F0FFFF0C220121114808F0E4
:1018F000FAFF0C2204210F4808F0F5FF0C22052105
:101900000C4808F0F0FF0C2208210A4808F0EBFF11
:101910000C220921074808F0E6FF0C220A2105489D
:1019200008F0E1FF0C220BE0A04000200020006C3A
:1019300000140240000C0240001002400018024057
:101940000E21FE4808F0CFFF0C220F21FB4808F0C3
:10195000CAFF0C220721FA4808F0C5FF0C22082113
:10196000F74808F0C0FF0C220921F54808F0BBFF3A
:101970000C220A21F24808F0B6FF0C220B21F04895
:1019800008F0B1FF0C221146ED4808F0ACFF0C2224
:101990000D21EB4808F0A7FF0C220E21E84808F0C3
:1019A000A2FF0C220F21E64808F09DFF0C22022125
:1019B000E44808F098FF0C221146E24808F093FF33
:1019C0000F200890002009903C200A9000200B90E6
:1019D0000C900D900E90092001900020029008209C
:1019E00003900020049005900690079006200F9029
:1019F000002010901190102012900020139015904C
:101A00001490169017904FF4805018900020199061
:101A10004FF480401A9000201B9008A81C9001A849
:101A20001D900FA808F085FB0121062008F00CFC92
:101A300032200BF086F901210020FFF792F93220C5
:101A40000BF07FF90020FFF796F9BF498880084620
:101A50008088FF280ADB084680884FF6FF7188429D
:101A600004D0B9488088B0F5134F7CD1D320FFF75C
:101A70005DF9FFF76EF9B4498880FFF76AF9B2495A
:101A80008880FFF766F9B0498880084680884FF65D
:101A9000FF7101EA0020AC498880FFF75AF9AA4992
:101AA00089880843A84988800846808849F24131DE
:101AB000884278D0BF20FFF739F9FFF74AF9A249E9
:101AC0008880FFF746F9A0498880FFF742F99E49D0
:101AD0008880FFF73EF99C498880084680884FF649
:101AE000FF7101EA002098498880FFF732F9964992
:101AF00089880843944988800846808846F604010E
:101B0000884250D0D420FFF711F9FFF722F98E490F
:101B10008880FFF71EF98C498880FFF71AF98A49F7
:101B20008880084680884FF6FF7101EA00208649C8
:101B30008880FFF70EF984498988084382498880A4
:101B40000846808845F2103188422CD04FF45A4024
:101B5000FFF7ECF8FFF7FDF87B4988804FF45B4016
:101B6000FFF7E4F800E01EE0FFF7F3F8764988801D
:101B7000084680884FF6FF7101EA0020724988808C
:101B80004FF45C40FFF7D2F8FFF7E3F86E4989881D
:101B900008436D49888008468088B0F5004F02D11F
:101BA00045F2105088806848808849F24131884267
:101BB0000BD06548808845F21031884205D06248D4
:101BC000808845F2105188421DD16048006820F09D
:101BD0000F004FF02041C1F81C010846D0F81C014D
:101BE00020F47060C1F81C010846D0F81C0140F0D8
:101BF0000300C1F81C010846D0F81C0140F4007035
:101C0000C1F81C0128E05048808846F6040188424B
:101C100005D04D4880884CF2055188421CD14B4874
:101C2000006820F00F004FF02041C1F81C01084669
:101C3000D0F81C0120F47060C1F81C010846D0F8EF
:101C40001C0140F00A00C1F81C010846D0F81C0134
:101C500040F44060C1F81C013B4881883CA01DF065
:101C60009BFF3FA01DF098FF3748808849F2413123
:101C7000884279D1CF20FFF759F80020FFF75FF8AD
:101C80002098401C2090C120FFF759F83020FFF722
:101C900056F8ED20FFF74AF86420FFF750F80320CC
:101CA000FFF74DF81220FFF74AF88120FFF747F8B9
:101CB000E820FFF73BF88520FFF741F81020FFF7F9
:101CC0003EF87A20FFF73BF8CB20FFF72FF83920BA
:101CD000FFF735F82C20FFF732F80020FFF72FF838
:101CE0003420FFF72CF80220FFF729F8F720FFF740
:101CF0001DF82020FFF723F8EA20FFF717F800204F
:101D0000FFF71DF80020FFF71AF8C020FFF70EF8C4
:101D10001B20FFF714F8C120FFF708F80120FFF798
:101D20000EF8C520FFF702F83020FFF708F8302042
:101D3000FFF705F8C720FEF7F9FF16E0000C024098
:101D40000010024000180240A04000201C0100A02A
:101D5000204C43442049443A25780D0A00000000F5
:101D6000746573740D0A0000B5E0B720FEF7E7FF55
:101D70003620FEF7DBFF4820FEF7E1FF3A20FEF7B2
:101D8000D5FF5520FEF7DBFFB120FEF7CFFF002087
:101D9000FEF7D5FF1A20FEF7D2FFB620FEF7C6FFEA
:101DA0000A20FEF7CCFFA220FEF7C9FFF220FEF7C3
:101DB000BDFF0020FEF7C3FF2620FEF7B7FF01207E
:101DC000FEF7BDFFE020FEF7B1FF0F20FEF7B7FFE3
:101DD0002A20FEF7B4FF2820FEF7B1FF0820FEF707
:101DE000AEFF0E20FEF7ABFF0820FEF7A8FF542041
:101DF000FEF7A5FFA920FEF7A2FF4320FEF79FFFF5
:101E00000A20FEF79CFF0F20FEF799FF0020FEF747
:101E100096FF0020FEF793FF0020FEF790FF0020C2
:101E2000FEF78DFFE120FEF781FF0020FEF787FF20
:101E30001520FEF784FF1720FEF781FF0720FEF72D
:101E40007EFF1120FEF77BFF0620FEF778FF2B2098
:101E5000FEF775FF5620FEF772FF3C20FEF76FFF7E
:101E60000520FEF76CFF1020FEF769FF0F20FEF73C
:101E700066FF3F20FEF763FF3F20FEF760FF0F2065
:101E8000FEF75DFF2B20FEF751FF0020FEF757FF06
:101E90000020FEF754FF0120FEF751FF3F20FEF720
:101EA0004EFF2A20FEF742FF0020FEF748FF0020E9
:101EB000FEF745FF0020FEF742FFEF20FEF73FFF51
:101EC0001120FEF733FF78200AF03BFF2920FEF7B0
:101ED0002DFF03F05CB8FE48808846F60401884276
:101EE0007ED11120FEF722FF14200AF02AFFD02015
:101EF000FEF71CFF0720FEF722FF4220FEF71FFF20
:101F00001D20FEF71CFFD120FEF710FF0020FEF77A
:101F100016FF1A20FEF713FF0920FEF710FFD2204C
:101F2000FEF704FF0120FEF70AFF2220FEF707FF5D
:101F3000C020FEF7FBFE1020FEF701FF3B20FEF75E
:101F4000FEFE0020FEF7FBFE0220FEF7F8FE112049
:101F5000FEF7F5FEC520FEF7E9FE0320FEF7EFFED3
:101F6000C820FEF7E3FE0020FEF7E9FE2520FEF77D
:101F7000E6FE2120FEF7E3FE0520FEF7E0FE00204E
:101F8000FEF7DDFE0A20FEF7DAFE6520FEF7D7FE3B
:101F90002520FEF7D4FE7720FEF7D1FE5020FEF775
:101FA000CEFE0F20FEF7CBFE0020FEF7C8FEF82085
:101FB000FEF7BCFE0120FEF7C2FEFE20FEF7B6FED5
:101FC0000020FEF7BCFE0220FEF7B9FE2020FEF73F
:101FD000ADFE3620FEF7AAFE0820FEF7B0FE00E0B8
:101FE0002AE03A20FEF7A2FE5520FEF7A8FE2B209D
:101FF000FEF79CFE0020FEF7A2FE0020FEF79FFEEB
:102000000120FEF79CFE3F20FEF799FE2A20FEF7F6
:102010008DFE0020FEF793FE0020FEF790FE0120CB
:10202000FEF78DFEDF20FEF78AFE78200AF089FE9B
:102030002920FEF77BFE4CE7A548808845F2103149
:10204000884240F07C87ED20FEF770FE0120FEF70D
:1020500076FEFE20FEF773FEEE20FEF767FEDE2022
:10206000FEF76DFE2120FEF76AFEF120FEF75EFE10
:102070000120FEF764FEDF20FEF758FE1020FEF779
:102080005EFEC420FEF752FE8F20FEF758FEC620EB
:10209000FEF74CFE0020FEF752FEE220FEF74FFE58
:1020A000E220FEF74CFEE220FEF749FEBF20FEF7DD
:1020B0003DFEAA20FEF743FEB020FEF737FE0D20BE
:1020C000FEF73DFE0020FEF73AFE0D20FEF737FE3C
:1020D0000020FEF734FE1120FEF731FE0020FEF74F
:1020E0002EFE1920FEF72BFE0020FEF728FE2120F1
:1020F000FEF725FE0020FEF722FE2D20FEF71FFE34
:102100000020FEF71CFE3D20FEF719FE0020FEF722
:1021100016FE5D20FEF713FE0020FEF710FE5D2088
:10212000FEF70DFE0020FEF70AFEB120FEF7FEFDD1
:102130008020FEF704FE0020FEF701FE8B20FEF754
:10214000FEFD0020FEF7FBFD9620FEF7F8FD0020C7
:10215000FEF7F5FDB220FEF7E9FD0020FEF7EFFDEA
:102160000020FEF7ECFD0220FEF7E9FD0020FEF75F
:10217000E6FD0320FEF7E3FD0020FEF7E0FDB320BF
:10218000FEF7D4FD0020FEF7DAFD0020FEF7D7FDB4
:102190000020FEF7D4FD0020FEF7D1FD0020FEF761
:1021A000CEFD0020FEF7CBFD0020FEF7C8FD00208D
:1021B000FEF7C5FD0020FEF7C2FD0020FEF7BFFDC3
:1021C0000020FEF7BCFD0020FEF7B9FD0020FEF761
:1021D000B6FD0020FEF7B3FD0020FEF7B0FD0020A5
:1021E000FEF7ADFD0020FEF7AAFD0020FEF7A7FDDB
:1021F0000020FEF7A4FD0020FEF7A1FD0020FEF761
:102200009EFD0020FEF79BFD0020FEF798FD0020BC
:10221000FEF795FDB420FEF789FD8B20FEF78FFDBC
:102220000020FEF78CFD9620FEF789FD0020FEF7CA
:1022300086FDA120FEF783FD0020FEF780FDB5207E
:10224000FEF774FD0220FEF77AFD0020FEF777FD11
:102250000320FEF774FD0020FEF771FD0420FEF759
:102260006EFD0020FEF76BFDB620FEF75FFD00203F
:10227000FEF765FD0020FEF762FDB720FEF756FD74
:102280000020FEF75CFD0020FEF759FD3F20FEF721
:1022900056FD0020FEF753FD5E20FEF750FD0020A6
:1022A000FEF74DFD6420FEF74AFD0020FEF747FDD6
:1022B0008C20FEF744FD0020FEF741FDAC20FEF728
:1022C0003EFD0020FEF73BFDDC20FEF738FD01E07F
:1022D000A04000200020FEF732FD7020FEF72FFD09
:1022E0000020FEF72CFD9020FEF729FD0020FEF7D0
:1022F00026FDEB20FEF723FD0020FEF720FDDC206D
:10230000FEF71DFD0020FEF71AFDB820FEF70EFDBA
:102310000020FEF714FD0020FEF711FD0020FEF75F
:102320000EFD0020FEF70BFD0020FEF708FD00204B
:10233000FEF705FD0020FEF702FD0020FEF7FFFC82
:10234000BA20FEF7F3FC2420FEF7F9FC0020FEF78C
:10235000F6FC0020FEF7F3FC0020FEF7F0FCC120A5
:10236000FEF7E4FC2020FEF7EAFC0020FEF7E7FC85
:102370005420FEF7E4FC0020FEF7E1FCFF20FEF70E
:10238000DEFC0020FEF7DBFCC220FEF7CFFC0A20BB
:10239000FEF7D5FC0020FEF7D2FC0420FEF7CFFCB0
:1023A0000020FEF7CCFCC320FEF7C0FC3C20FEF76B
:1023B000C6FC0020FEF7C3FC3A20FEF7C0FC00205C
:1023C000FEF7BDFC3920FEF7BAFC0020FEF7B7FC93
:1023D0003720FEF7B4FC0020FEF7B1FC3C20FEF7EE
:1023E000AEFC0020FEF7ABFC3620FEF7A8FC002078
:1023F000FEF7A5FC3220FEF7A2FC0020FEF79FFCB2
:102400002F20FEF79CFC0020FEF799FC2C20FEF705
:1024100096FC0020FEF793FC2920FEF790FC00209C
:10242000FEF78DFC2620FEF78AFC0020FEF787FCD5
:102430002420FEF784FC0020FEF781FC2420FEF718
:102440007EFC0020FEF77BFC2320FEF778FC0020BA
:10245000FEF775FC3C20FEF772FC0020FEF76FFCD7
:102460003620FEF76CFC0020FEF769FC3220FEF7F8
:1024700066FC0020FEF763FC2F20FEF760FC0020C6
:10248000FEF75DFC2C20FEF75AFC0020FEF757FCFF
:102490002920FEF754FC0020FEF751FC2620FEF711
:1024A0004EFC0020FEF74BFC2420FEF748FC0020E9
:1024B000FEF745FC2420FEF742FC0020FEF73FFC1F
:1024C0002320FEF73CFC0020FEF739FCC420FEF779
:1024D0002DFC6220FEF733FC0020FEF730FC0520C7
:1024E000FEF72DFC0020FEF72AFC8420FEF727FCD7
:1024F0000020FEF724FCF020FEF721FC0020FEF770
:102500001EFC1820FEF71BFC0020FEF718FCA42080
:10251000FEF715FC0020FEF712FC1820FEF70FFC5A
:102520000020FEF70CFC5020FEF709FC0020FEF70F
:1025300006FC0C20FEF703FC0020FEF700FC172031
:10254000FEF7FDFB0020FEF7FAFB9520FEF7F7FBF8
:102550000020FEF7F4FBF320FEF7F1FB0020FEF76E
:10256000EEFBE620FEF7EBFB0020FEF7E8FBC520C4
:10257000FEF7DCFB3220FEF7E2FB0020FEF7DFFB7C
:102580004420FEF7DCFB0020FEF7D9FB6520FEF7B8
:10259000D6FB0020FEF7D3FB7620FEF7D0FB002011
:1025A000FEF7CDFB8820FEF7CAFB0020FEF7C7FB35
:1025B000C620FEF7BBFB2020FEF7C1FB0020FEF784
:1025C000BEFB1720FEF7BBFB0020FEF7B8FB012087
:1025D000FEF7B5FB0020FEF7B2FBC720FEF7A6FB17
:1025E0000020FEF7ACFB0020FEF7A9FB0020FEF761
:1025F000A6FB0020FEF7A3FBC820FEF797FB0020F8
:10260000FEF79DFB0020FEF79AFB0020FEF797FBEC
:102610000020FEF794FBC920FEF788FB0020FEF7A0
:102620008EFB0020FEF78BFB0020FEF788FB0020CE
:10263000FEF785FB0020FEF782FB0020FEF77FFB04
:102640000020FEF77CFB0020FEF779FB0020FEF760
:1026500076FB0020FEF773FB0020FEF770FB0020E6
:10266000FEF76DFB0020FEF76AFB0020FEF767FB1C
:102670000020FEF764FB0020FEF761FBE020FEF780
:1026800055FB1620FEF75BFB0020FEF758FB1C20D5
:10269000FEF755FB0020FEF752FB2120FEF74FFB13
:1026A0000020FEF74CFB3620FEF749FB0020FEF72A
:1026B00046FB4620FEF743FB0020FEF740FB52207E
:1026C000FEF73DFB0020FEF73AFB6420FEF737FBE8
:1026D0000020FEF734FB7A20FEF731FB0020FEF7E6
:1026E0002EFB8B20FEF72BFB0020FEF728FB99200A
:1026F000FEF725FB0020FEF722FBA820FEF71FFBBC
:102700000020FEF71CFBB920FEF719FB0020FEF7A6
:1027100016FBC420FEF713FB0020FEF710FBCA20B7
:10272000FEF70DFB0020FEF70AFBD220FEF707FBA9
:102730000020FEF704FBD920FEF701FB0020FEF786
:10274000FEFAE020FEF7FBFA0020FEF7F8FAF3208D
:10275000FEF7F5FA0020FEF7F2FAE120FEF7E6FABE
:102760001620FEF7ECFA0020FEF7E9FA1C20FEF72F
:10277000E6FA0020FEF7E3FA2220FEF7E0FA002056
:10278000FEF7DDFA3620FEF7DAFA0020FEF7D7FA78
:102790004520FEF7D4FA0020FEF7D1FA5220FEF7CA
:1027A000CEFA0020FEF7CBFA6420FEF7C8FA00202C
:1027B000FEF7C5FA7A20FEF7C2FA0020FEF7BFFA4C
:1027C0008B20FEF7BCFA0020FEF7B9FA9920FEF73D
:1027D000B6FA0020FEF7B3FAA820FEF7B0FA002000
:1027E000FEF7ADFAB920FEF7AAFA0020FEF7A7FA25
:1027F000C420FEF7A4FA0020FEF7A1FACA20FEF7D3
:102800009EFA0020FEF79BFAD220FEF798FA0020ED
:10281000FEF795FAD820FEF792FA0020FEF78FFA1D
:10282000E020FEF78CFA0020FEF789FAF320FEF78D
:1028300086FA0020FEF783FAE220FEF777FA0520F9
:10284000FEF77DFA0020FEF77AFA0B20FEF777FA02
:102850000020FEF774FA1B20FEF771FA0020FEF745
:102860006EFA3420FEF76BFA0020FEF768FA442077
:10287000FEF765FA0020FEF762FA4F20FEF75FFAD6
:102880000020FEF75CFA6120FEF759FA0020FEF7FF
:1028900056FA7920FEF753FA0020FEF750FA882006
:1028A000FEF74DFA0020FEF74AFA9720FEF747FAA6
:1028B0000020FEF744FAA620FEF741FA0020FEF7BA
:1028C0003EFAB720FEF73BFA0020FEF738FAC220A6
:1028D000FEF735FA0020FEF732FAC720FEF72FFA8E
:1028E0000020FEF72CFAD120FEF729FA0020FEF78F
:1028F00026FAD620FEF723FA0020FEF720FADD2084
:10290000FEF71DFA0020FEF71AFAF320FEF717FA79
:102910000020FEF714FAE320FEF708FA0520FEF780
:102920000EFA0020FEF70BFA0A20FEF708FA002044
:10293000FEF705FA1C20FEF702FA0020FEF7FFF969
:102940003320FEF7FCF90020FEF7F9F94420FEF7EA
:10295000F6F90020FEF7F3F95020FEF7F0F9002019
:10296000FEF7EDF96220FEF7EAF90020FEF7E7F93D
:102970007820FEF7E4F90020FEF7E1F98820FEF761
:10298000DEF90020FEF7DBF99720FEF7D8F90020EA
:10299000FEF7D5F9A620FEF7D2F90020FEF7CFF911
:1029A000B720FEF7CCF90020FEF7C9F9C220FEF7E8
:1029B000C6F90020FEF7C3F9C720FEF7C0F90020D2
:1029C000FEF7BDF9D120FEF7BAF90020FEF7B7F9FE
:1029D000D520FEF7B4F90020FEF7B1F9DD20FEF7AF
:1029E000AEF90020FEF7ABF9F320FEF7A8F90020BE
:1029F000FEF7A5F9E420FEF799F90120FEF79FF90B
:102A00000020FEF79CF90120FEF799F90020FEF75F
:102A100096F90220FEF793F90020FEF790F92A209C
:102A2000FEF78DF90020FEF78AF93C20FEF787F9C2
:102A30000020FEF784F94B20FEF781F90020FEF715
:102A40007EF95D20FEF77BF90020FEF778F974200F
:102A5000FEF775F90020FEF772F98420FEF76FF992
:102A60000020FEF76CF99320FEF769F90020FEF7CD
:102A700066F9A220FEF763F90020FEF760F9B320A3
:102A8000FEF75DF90020FEF75AF9BE20FEF757F970
:102A90000020FEF754F9C420FEF751F90020FEF79C
:102AA0004EF9CD20FEF74BF90020FEF748F9D32070
:102AB000FEF745F90020FEF742F9DD20FEF73FF969
:102AC0000020FEF73CF9F320FEF739F90020FEF76D
:102AD00036F9E520FEF72AF90020FEF730F900204C
:102AE000FEF72DF90020FEF72AF90020FEF727F95E
:102AF0000220FEF724F90020FEF721F92920FEF735
:102B00001EF90020FEF71BF93C20FEF718F9002003
:102B1000FEF715F94B20FEF712F90020FEF70FF92A
:102B20005D20FEF70CF90020FEF709F97420FEF78E
:102B300006F90020FEF703F98420FEF700F90020D3
:102B4000FEF7FDF89320FEF7FAF80020FEF7F7F8FD
:102B5000A220FEF7F4F80020FEF7F1F8B320FEF70C
:102B6000EEF80020FEF7EBF8BE20FEF7E8F80020B4
:102B7000FEF7E5F8C420FEF7E2F80020FEF7DFF8E4
:102B8000CD20FEF7DCF80020FEF7D9F8D320FEF7C1
:102B9000D6F80020FEF7D3F8DC20FEF7D0F80020AE
:102BA000FEF7CDF8F320FEF7CAF80020FEF7C7F8CD
:102BB000E620FEF7BBF81120FEF7C1F80020FEF773
:102BC000BEF83420FEF7BBF80020FEF7B8F8562018
:102BD000FEF7B5F80020FEF7B2F87620FEF7AFF862
:102BE0000020FEF7ACF87720FEF7A9F80020FEF7EA
:102BF000A6F86620FEF7A3F80020FEF7A0F88820CC
:102C0000FEF79DF80020FEF79AF89920FEF797F856
:102C10000020FEF794F8BB20FEF791F80020FEF7A5
:102C20008EF89920FEF78BF80020FEF788F86620D2
:102C3000FEF785F80020FEF782F85520FEF77FF8B2
:102C40000020FEF77CF85520FEF779F80020FEF70B
:102C500076F84520FEF773F80020FEF770F8432061
:102C6000FEF76DF80020FEF76AF84420FEF767F8DB
:102C70000020FEF764F8E720FEF758F83220FEF750
:102C80005EF80020FEF75BF85520FEF758F80020AC
:102C9000FEF755F87620FEF752F80020FEF74FF8C1
:102CA0006620FEF74CF80020FEF749F86720FEF793
:102CB00046F80020FEF743F86720FEF740F80020B2
:102CC000FEF73DF88720FEF73AF80020FEF737F8C8
:102CD0009920FEF734F80020FEF731F8BB20FEF70C
:102CE0002EF80020FEF72BF89920FEF728F8002098
:102CF000FEF725F87720FEF722F80020FEF71FF8F0
:102D00004420FEF71CF80020FEF719F85620FEF7C5
:102D100016F80020FEF713F82320FEF710F8002025
:102D2000FEF70DF83320FEF70AF80020FEF707F84B
:102D30004520FEF704F80020FEF701F8E820FDF733
:102D4000F5FF0020FDF7FBFF0020FDF7F8FF9920BD
:102D5000FDF7F5FF0020FDF7F2FF8720FDF7EFFFFD
:102D60000020FDF7ECFF8820FDF7E9FF0020FDF7CC
:102D7000E6FF7720FDF7E3FF0020FDF7E0FF662088
:102D8000FDF7DDFF0020FDF7DAFF8820FDF7D7FF14
:102D90000020FDF7D4FFAA20FDF7D1FF0020FDF7AA
:102DA000CEFFBB20FDF7CBFF0020FDF7C8FF992029
:102DB000FDF7C5FF0020FDF7C2FF6620FDF7BFFF4E
:102DC0000020FDF7BCFF5520FDF7B9FF0020FDF7FF
:102DD000B6FF5520FDF7B3FF0020FDF7B0FF4420FC
:102DE000FDF7ADFF0020FDF7AAFF4420FDF7A7FF88
:102DF0000020FDF7A4FF5520FDF7A1FF0020FDF7FF
:102E00009EFFE920FDF792FFAA20FDF798FF002022
:102E1000FDF795FF0020FDF792FF0020FDF78FFFE3
:102E20000020FDF783FFAA20FDF789FFCF20FDF7E3
:102E30007DFF0020FDF783FF0020FDF780FF0020CD
:102E4000FDF77DFF0020FDF77AFF0020FDF777FFFB
:102E50000020FDF774FF0020FDF771FF0020FDF753
:102E60006EFF0020FDF76BFF0020FDF768FF0020DC
:102E7000FDF765FF0020FDF762FF0020FDF75FFF13
:102E80000020FDF75CFF0020FDF759FF0020FDF753
:102E900056FF0020FDF753FFF020FDF747FF00200D
:102EA000FDF74DFF5020FDF74AFF0020FDF747FFDB
:102EB0000020FDF744FF0020FDF741FFF320FDF760
:102EC00035FF0020FDF73BFFF920FDF72FFF06201F
:102ED000FDF735FF1020FDF732FF2920FDF72FFF0A
:102EE0000020FDF72CFF3A20FDF720FF5520FDF7CD
:102EF00026FF1120FDF71AFF642009F022FF292088
:102F0000FDF714FF3520FDF711FF0020FDF717FF37
:102F10005120FDF70BFFFF20FDF711FF5320FDF7B8
:102F200005FF2C20FDF70BFF5520FDF7FFFE82204B
:102F3000FDF705FF2C20FDF7F9FE02F028B8FE484A
:102F4000808845F2105188427ED155214FF470405F
:102F5000FDF707FFAA214FF20100FDF702FF522102
:102F60004FF20200FDF7FDFE08214FF20300FDF7CE
:102F7000F8FE01214FF20400FDF7F3FE0D214FF49E
:102F80003040FDF7EEFE0D214BF20100FDF7E9FEAA
:102F90000D214BF20200FDF7E4FE34214FF43640E0
:102FA000FDF7DFFE34214BF20160FDF7DAFE34213C
:102FB0004BF20260FDF7D5FE0D214FF43140FDF7D5
:102FC000D0FE0D214BF20110FDF7CBFE0D214BF28F
:102FD0000210FDF7C6FE34214FF43740FDF7C1FE65
:102FE00034214BF20170FDF7BCFE34214BF202702C
:102FF000FDF7B7FE00214FF43240FDF7B2FE00218D
:103000004BF20120FDF7ADFE00214BF20220FDF74F
:10301000A8FE24214FF43840FDF7A3FE24214BF6EF
:103020000100FDF79EFE24214BF60200FDF799FEFC
:1030300001214FF43F40FDF794FE0F214FF4334040
:10304000FDF78FFE0F2100E0FEE34BF20130FDF7AC
:1030500088FE0F214BF20230FDF783FE34214FF43E
:103060003940FDF77EFE34214BF60110FDF779FE65
:1030700034214BF60210FDF774FE08214FF4354061
:10308000FDF76FFE08214BF20150FDF76AFE0821A3
:103090004BF20250FDF765FE03214FF44240FDF76D
:1030A00060FE24214FF43A40FDF75BFE24214BF6ED
:1030B0000120FDF756FE24214BF60220FDF751FEBC
:1030C00000214FF43C40FDF74CFE78214BF60140C7
:1030D000FDF747FE00214BF60240FDF742FE0021BE
:1030E0004FF43D40FDF73DFE78214BF60150FDF7D2
:1030F00038FE00214BF60250FDF733FE00214FF45D
:103100003E40FDF72EFE64214BF60160FDF729FEDF
:1031100000214FF45140FDF724FE33214DF2011000
:10312000FDF71FFE00214DF20210FDF71AFE3421BB
:103130004DF20310FDF715FE00214DF20410FDF7CE
:1031400010FE3A214DF20510FDF70BFE00214DF265
:103150000610FDF706FE4A214DF20710FDF701FEAD
:1031600000214DF20810FDF7FCFD5C214DF2091025
:10317000FDF7F7FD00214DF20A10FDF7F2FD812168
:103180004DF20B10FDF7EDFD00214DF20C10FDF797
:10319000E8FDA6214DF20D10FDF7E3FD00214DF2F3
:1031A0000E10FDF7DEFDE5214DF20F10FDF7D9FD04
:1031B00001214DF21010FDF7D4FD13214DF2111035
:1031C000FDF7CFFD01214DF21210FDF7CAFD54218C
:1031D0004DF21310FDF7C5FD01214DF21410FDF75E
:1031E000C0FD82214DF21510FDF7BBFD01214DF20E
:1031F0001610FDF7B6FDCA214DF21710FDF7B1FD0F
:1032000002214DF21810FDF7ACFD00214DF219100E
:10321000FDF7A7FD02214DF21A10FDF7A2FD0121D5
:103220004DF21B10FDF79DFD02214DF21C10FDF724
:1032300098FD34214DF21D10FDF793FD02214DF252
:103240001E10FDF78EFD67214DF21F10FDF789FD61
:1032500002214DF22010FDF784FD84214DF2211052
:10326000FDF77FFD02214DF22210FDF77AFDA4212A
:103270004DF22310FDF775FD02214DF22410FDF7EC
:1032800070FDB7214DF22510FDF76BFD02214DF2C7
:103290002610FDF766FDCF214DF22710FDF761FDE9
:1032A00002214DF22810FDF75CFDDE214DF22910C0
:1032B000FDF757FD02214DF22A10FDF752FDF221D4
:1032C0004DF22B10FDF74DFD02214DF22C10FDF7B4
:1032D00048FDFE214DF22D10FDF743FD03214DF277
:1032E0002E10FDF73EFD10214DF22F10FDF739FD98
:1032F00003214DF23010FDF734FD33214DF2311032
:10330000FDF72FFD03214DF23210FDF72AFD6D214F
:103310004DF23310FDF725FD00214FF45240FDF72B
:1033200020FD33214DF20120FDF71BFD00214DF260
:103330000220FDF716FD01E0A040002034214DF2EF
:103340000320FDF70EFD00214DF20420FDF709FDDD
:103350003A214DF20520FDF704FD00214DF2062033
:10336000FDF7FFFC4A214DF20720FDF7FAFC002192
:103370004DF20820FDF7F5FC5C214DF20920FDF728
:10338000F0FC00214DF20A20FDF7EBFC81214DF20B
:103390000B20FDF7E6FC00214DF20C20FDF7E1FCCF
:1033A000A6214DF20D20FDF7DCFC00214DF20E2090
:1033B000FDF7D7FCE5214DF20F20FDF7D2FC0121EE
:1033C0004DF21020FDF7CDFC13214DF21120FDF739
:1033D000C8FC01214DF21220FDF7C3FC54214DF22F
:1033E0001320FDF7BEFC01214DF21420FDF7B9FCBE
:1033F00082214DF21520FDF7B4FC01214DF216207B
:10340000FDF7AFFCCA214DF21720FDF7AAFC0221FF
:103410004DF21820FDF7A5FC00214DF21920FDF713
:10342000A0FC02214DF21A20FDF79BFC01214DF278
:103430001B20FDF796FC02214DF21C20FDF791FCAC
:1034400034214DF21D20FDF78CFC02214DF21E208F
:10345000FDF787FC67214DF21F20FDF782FC02215A
:103460004DF22020FDF77DFC84214DF22120FDF757
:1034700078FC02214DF22220FDF773FCA4214DF2CD
:103480002320FDF76EFC02214DF22420FDF769FC9C
:10349000B7214DF22520FDF764FC02214DF22620D4
:1034A000FDF75FFCCF214DF22720FDF75AFC0221EA
:1034B0004DF22820FDF755FCDE214DF22920FDF7C5
:1034C00050FC02214DF22A20FDF74BFCF2214DF277
:1034D0002B20FDF746FC02214DF22C20FDF741FC8C
:1034E000FE214DF22D20FDF73CFC03214DF22E2054
:1034F000FDF737FC10214DF22F20FDF732FC0321A0
:103500004DF23020FDF72DFC33214DF23120FDF737
:1035100028FC03214DF23220FDF723FC6D214DF2F2
:103520003320FDF71EFC00214FF45340FDF719FC3A
:1035300033214DF20130FDF714FC00214DF2023031
:10354000FDF70FFC34214DF20330FDF70AFC00219A
:103550004DF20430FDF705FC3A214DF20530FDF740
:1035600000FC00214DF20630FDF7FBFB4A214DF235
:103570000730FDF7F6FB00214DF20830FDF7F1FBB7
:103580005C214DF20930FDF7ECFB00214DF20A30D1
:10359000FDF7E7FB81214DF20B30FDF7E2FB002147
:1035A0004DF20C30FDF7DDFBA6214DF20D30FDF79D
:1035B000D8FB00214DF20E30FDF7D3FBE5214DF293
:1035C0000F30FDF7CEFB01214DF21030FDF7C9FBA6
:1035D00013214DF21130FDF7C4FB01214DF21230E1
:1035E000FDF7BFFB54214DF21330FDF7BAFB01216B
:1035F0004DF21430FDF7B5FB82214DF21530FDF789
:10360000B0FB01214DF21630FDF7ABFBCA214DF2A4
:103610001730FDF7A6FB02214DF21830FDF7A1FB94
:1036200000214DF21930FDF79CFB02214DF21A30BA
:10363000FDF797FB01214DF21B30FDF792FB0221B4
:103640004DF21C30FDF78DFB34214DF21D30FDF79E
:1036500088FB02214DF21E30FDF783FB67214DF2FE
:103660001F30FDF77EFB02214DF22030FDF779FB84
:1036700084214DF22130FDF774FB02214DF22230FE
:10368000FDF76FFBA4214DF22330FDF76AFB022109
:103690004DF22430FDF765FBB7214DF22530FDF7E3
:1036A00060FB02214DF22630FDF75BFBCF214DF28E
:1036B0002730FDF756FB02214DF22830FDF751FB74
:1036C000DE214DF22930FDF74CFB02214DF22A306C
:1036D000FDF747FBF2214DF22B30FDF742FB0221B3
:1036E0004DF22C30FDF73DFBFE214DF22D30FDF764
:1036F00038FB03214DF22E30FDF733FB10214DF244
:103700002F30FDF72EFB03214DF23030FDF729FB62
:1037100033214DF23130FDF724FB03214DF23230DD
:10372000FDF71FFB6D214DF23330FDF71AFB002131
:103730004FF45440FDF715FB33214DF20140FDF7E6
:1037400010FB00214DF20240FDF70BFB34214DF23E
:103750000340FDF706FB00214DF20440FDF701FB9D
:103760003A214DF20540FDF7FCFA00214DF20640EA
:10377000FDF7F7FA4A214DF20740FDF7F2FA002172
:103780004DF20840FDF7EDFA5C214DF20940FDF7DE
:10379000E8FA00214DF20A40FDF7E3FA81214DF2EB
:1037A0000B40FDF7DEFA00214DF20C40FDF7D9FA8F
:1037B000A6214DF20D40FDF7D4FA00214DF20E4046
:1037C000FDF7CFFAE5214DF20F40FDF7CAFA0121CE
:1037D0004DF21040FDF7C5FA13214DF21140FDF7EF
:1037E000C0FA01214DF21240FDF7BBFA54214DF20F
:1037F0001340FDF7B6FA01214DF21440FDF7B1FA7E
:1038000082214DF21540FDF7ACFA01214DF2164030
:10381000FDF7A7FACA214DF21740FDF7A2FA0221DF
:103820004DF21840FDF79DFA00214DF21940FDF7C9
:1038300098FA02214DF21A40FDF793FA01214DF258
:103840001B40FDF78EFA00E004E302214DF21C401C
:10385000FDF787FA34214DF21D40FDF782FA02216F
:103860004DF21E40FDF77DFA67214DF21F40FDF736
:1038700078FA02214DF22040FDF773FA84214DF2CF
:103880002140FDF76EFA02214DF22240FDF769FA60
:10389000A4214DF22340FDF764FA02214DF22440A9
:1038A000FDF75FFAB7214DF22540FDF75AFA0221E4
:1038B0004DF22640FDF755FACF214DF22740FDF796
:1038C00050FA02214DF22840FDF74BFADE214DF26D
:1038D0002940FDF746FA02214DF22A40FDF741FA50
:1038E000F2214DF22B40FDF73CFA02214DF22C4023
:1038F000FDF737FAFE214DF22D40FDF732FA032194
:103900004DF22E40FDF72DFA10214DF22F40FDF71C
:1039100028FA03214DF23040FDF723FA33214DF20E
:103920003140FDF71EFA03214DF23240FDF719FA3E
:103930006D214DF23340FDF714FA00214FF455404C
:10394000FDF70FFA33214DF20150FDF70AFA00217D
:103950004DF20250FDF705FA34214DF20350FDF708
:1039600000FA00214DF20450FDF7FBF93A214DF227
:103970000550FDF7F6F900214DF20650FDF7F1F97B
:103980004A214DF20750FDF7ECF900214DF20850A5
:10399000FDF7E7F95C214DF20950FDF7E2F900214E
:1039A0004DF20A50FDF7DDF981214DF20B50FDF784
:1039B000D8F900214DF20C50FDF7D3F9A6214DF2B4
:1039C0000D50FDF7CEF900214DF20E50FDF7C9F96B
:1039D000E5214DF20F50FDF7C4F901214DF21050D1
:1039E000FDF7BFF913214DF21150FDF7BAF901218E
:1039F0004DF21250FDF7B5F954214DF21350FDF779
:103A0000B0F901214DF21450FDF7ABF982214DF2CE
:103A10001550FDF7A6F901214DF21650FDF7A1F959
:103A2000CA214DF21750FDF79CF902214DF21850B2
:103A3000FDF797F900214DF21950FDF792F9022197
:103A40004DF21A50FDF78DF901214DF21B50FDF793
:103A500088F902214DF21C50FDF783F934214DF213
:103A60001D50FDF77EF902214DF21E50FDF779F948
:103A700067214DF21F50FDF774F902214DF22050DD
:103A8000FDF76FF984214DF22150FDF76AF902210B
:103A90004DF22250FDF765F9A4214DF22350FDF7B8
:103AA00060F902214DF22450FDF75BF9B7214DF288
:103AB0002550FDF756F902214DF22650FDF751F938
:103AC000CF214DF22750FDF74CF902214DF228503D
:103AD000FDF747F9DE214DF22950FDF742F90221A9
:103AE0004DF22A50FDF73DF9F2214DF22B50FDF732
:103AF00038F902214DF22C50FDF733F9FE214DF239
:103B00002D50FDF72EF903214DF22E50FDF729F926
:103B100010214DF22F50FDF724F903214DF23050C2
:103B2000FDF71FF933214DF23150FDF71AF903214A
:103B30004DF23250FDF715F96D214DF23350FDF77E
:103B400010F900214FF45640FDF70BF933214DF2E7
:103B50000160FDF706F900214DF20260FDF701F961
:103B600034214DF20360FDF7FCF800214DF20460B2
:103B7000FDF7F7F83A214DF20560FDF7F2F8002164
:103B80004DF20660FDF7EDF84A214DF20760FDF7B2
:103B9000E8F800214DF20860FDF7E3F85C214DF2F2
:103BA0000960FDF7DEF800214DF20A60FDF7D9F853
:103BB00081214DF20B60FDF7D4F800214DF20C602D
:103BC000FDF7CFF8A6214DF20D60FDF7CAF80021F0
:103BD0004DF20E60FDF7C5F8E5214DF20F60FDF7DF
:103BE000C0F801214DF21060FDF7BBF813214DF232
:103BF0001160FDF7B6F801214DF21260FDF7B1F842
:103C000054214DF21360FDF7ACF801214DF2146020
:103C1000FDF7A7F882214DF21560FDF7A2F801210A
:103C20004DF21660FDF79DF8CA214DF21760FDF7C1
:103C300098F802214DF21860FDF793F800214DF23B
:103C40001960FDF78EF802214DF21A60FDF789F830
:103C500001214DF21B60FDF784F802214DF21C603A
:103C6000FDF77FF834214DF21D60FDF77AF802214F
:103C70004DF21E60FDF775F867214DF21F60FDF7EC
:103C800070F802214DF22060FDF76BF884214DF2AF
:103C90002160FDF766F802214DF22260FDF761F820
:103CA000A4214DF22360FDF75CF802214DF224605F
:103CB000FDF757F8B7214DF22560FDF752F80221C4
:103CC0004DF22660FDF74DF8CF214DF22760FDF74C
:103CD00048F802214DF22860FDF743F8DE214DF24D
:103CE0002960FDF73EF802214DF22A60FDF739F810
:103CF000F2214DF22B60FDF734F802214DF22C60D9
:103D0000FDF72FF8FE214DF22D60FDF72AF8032173
:103D10004DF22E60FDF725F810214DF22F60FDF7D2
:103D200020F803214DF23060FDF71BF833214DF2EE
:103D30003160FDF716F803214DF23260FDF711F8FE
:103D40006D214DF23360FDF70CF855214FF47040B2
:103D5000FDF707F8AA214FF20100FDF702F8522102
:103D60004FF20200FCF7FDFF08214FF20300FCF7C1
:103D7000F8FF00214FF20400FCF7F3FFCC214FF4D1
:103D80003140FCF7EEFF00214BF20110FCF7E9FF98
:103D900005214FF43640FCF7E4FF70214FF4374023
:103DA000FCF7DFFF70214BF20170FCF7DAFF012115
:103DB0004FF43840FCF7D5FF03214BF60100FCF728
:103DC000D0FF03214BF60200FCF7CBFF03214BF69B
:103DD0000300FCF7C6FF02214FF43C40FCF7C1FF93
:103DE00000214BF60140FCF7BCFF00214BF60240DE
:103DF000FCF7B7FFD0214FF44940FCF7B2FF022196
:103E00004CF60110FCF7ADFF50214CF60210FCF708
:103E1000A8FF50214CF60310FCF7A3FF50214CF6ED
:103E20000410FCF79EFF00214FF45450FCF799FF5B
:103E300055214FF46850FCF794FF4FF48850FCF77D
:103E400075FF782008F053FF4FF42450FCF76EFF05
:103E500001F09DB8FE48808849F2253188427DD125
:103E600047F6F001E520FCF77CFF4FF4807101205C
:103E7000FCF777FF4FF4E0610220FCF772FF41F29C
:103E800030010320FCF76DFF00210420FCF769FFDF
:103E900040F202210820FCF764FF00210920FCF712
:103EA00060FF00210A20FCF75CFF00210C20FCF7DA
:103EB00058FF00210D20FCF754FF00210F20FCF7D4
:103EC00050FF00211020FCF74CFF07211120FCF7C8
:103ED00048FF00211220FCF744FF00211320FCF7CB
:103EE00040FF00210720FCF73CFF41F290611020C9
:103EF000FCF737FF40F227211120FCF732FF9D210C
:103F00001220FCF72EFF4FF4C8511320FCF729FFB5
:103F100025212920FCF725FF0D212B20FCF721FF6F
:103F200007213020FCF71DFF40F203313120FCF760
:103F300018FF03213220FCF714FF40F20621352040
:103F4000FCF70FFF08213620FCF70BFF40F206417B
:103F50003720FCF706FF4FF4417100E058E03820AD
:103F6000FCF7FFFE07213920FCF7FBFE40F202615F
:103F70003C20FCF7F6FE08213D20FCF7F2FE002174
:103F80005020FCF7EEFEEF215120FCF7EAFE002165
:103F90005220FCF7E6FE40F23F115320FCF7E1FE11
:103FA0004FF427416020FCF7DCFE01216120FCF783
:103FB000D8FE00216A20FCF7D4FE00218020FCF707
:103FC000D0FE00218120FCF7CCFE00218220FCF7EE
:103FD000C8FE00218320FCF7C4FE00218420FCF7EA
:103FE000C0FE00218520FCF7BCFE10219020FCF7CC
:103FF000B8FE4FF4C0619220FCF7B3FE40F23311DB
:104000000720FCF7AEFE22210020FCF7AAFE1FE7E6
:104010008F48808849F2283188427DD141F28F0152
:10402000EC20FCF79EFE41F23421EF20FCF799FED4
:104030004FF480710120FCF794FE4FF4E061022000
:10404000FCF78FFE41F230010320FCF78AFE0021CD
:104050000420FCF786FE40F202210820FCF781FED6
:1040600000210920FCF77DFE00210A20FCF779FEE3
:1040700001210C20FCF775FE00210D20FCF771FEDC
:1040800000210F20FCF76DFE00211020FCF769FED7
:1040900007211120FCF765FE00211220FCF761FECC
:1040A00000211320FCF75DFE01210720FCF759FEDB
:1040B000322008F046FE41F290411020FCF751FEFC
:1040C00040F227211120FCF74CFE322008F039FE87
:1040D0008A211220FCF745FE322008F032FE4FF410
:1040E000D0511320FCF73DFE06212920FCF739FEB4
:1040F0000D212B20FCF735FE322008F022FE002196
:104100002020FCF72EFE00212120FCF72AFE322081
:1041100008F017FE002100E075E03020FCF721FEDA
:1041200040F204613120FCF71CFE40F205313220E0
:10413000FCF717FE00213520FCF713FE40F609417D
:104140003620FCF70EFE4FF401713720FCF709FE14
:1041500040F201313820FCF704FE40F207713920AB
:10416000FCF7FFFD00213C20FCF7FBFD40F60A2197
:104170003D20FCF7F6FD322008F0E3FD0021502041
:10418000FCF7EFFDEF215120FCF7EBFD0021522061
:10419000FCF7E7FD40F23F115320FCF7E2FD4FF43E
:1041A00027416020FCF7DDFD01216120FCF7D9FDEE
:1041B00000216A20FCF7D5FD00218020FCF7D1FD0D
:1041C00000218120FCF7CDFD00218220FCF7C9FDF4
:1041D00000218320FCF7C5FD00218420FCF7C1FDF0
:1041E00000218520FCF7BDFD10219020FCF7B9FDD2
:1041F0004FF4C0619220FCF7B4FD40F23311072068
:10420000FCF7AFFD24E61248808849F2203188424D
:104210007ED100210846FCF7A4FD4FF480710120F7
:10422000FCF79FFD4FF4E0610220FCF79AFD41F29C
:1042300030010320FCF795FD00210420FCF791FDDF
:1042400040F202210820FCF78CFD0021092001E04A
:10425000A0400020FCF785FD00210A20FCF781FD2D
:1042600001210C20FCF77DFD00210D20FCF779FDDC
:1042700000210F20FCF775FD322008F062FD40F2AE
:1042800001110720FCF76DFD322008F05AFD4FF4B4
:1042900086511020FCF765FD07211120FCF761FD18
:1042A0004FF488711220FCF75CFD4FF4306113204D
:1042B000FCF757FD00212920FCF753FD44F21001C3
:1042C0002B20FCF74EFD00215020FCF74AFDEF218A
:1042D0005120FCF746FD00215220FCF742FD40F240
:1042E0003F115320FCF73DFD4FF41C516020FCF7BB
:1042F00038FD01216120FCF734FD00216A20FCF724
:1043000030FD00218020FCF72CFD0021812000E001
:1043100030E0FCF726FD00218220FCF722FD002181
:104320008320FCF71EFD00218420FCF71AFD0021EC
:104330008520FCF716FD10219020FCF712FD0021CE
:104340009220FCF70EFD01219320FCF70AFD4FF4AB
:1043500088719520FCF705FD00219720FCF701FDF1
:1043600000219820FCF7FDFC40F273110720FCF7B8
:10437000F8FC6DE5FE48808849F2313188427DD1F4
:1043800041F21401E720FCF7ECFC4FF480710120AE
:10439000FCF7E7FC4FF400710220FCF7E2FC41F26D
:1043A00038010320FCF7DDFC40F202210820FCF775
:1043B000D8FC00210920FCF7D4FC00210A20FCF7DE
:1043C000D0FC00210C20FCF7CCFC00210D20FCF7D8
:1043D000C8FC00210F20FCF7C4FC00211020FCF7D2
:1043E000C0FC07211120FCF7BCFC00211220FCF7C7
:1043F000B8FC00211320FCF7B4FCC82008F0A1FC95
:1044000041F290611020FCF7ACFC40F22721112012
:10441000FCF7A7FC322008F094FC0C211220FCF7DA
:10442000A0FC322008F08DFC4FF400611320FCF753
:1044300098FC11212920FCF794FC0B212B20FCF780
:1044400090FC322008F07DFC00212020FCF789FC44
:1044500040F23F112120FCF784FC00213020FCF7C2
:1044600080FC4FF483713120FCF77BFC002132206B
:10447000FCF777FC4FF40171352000E064E0FCF7B5
:1044800070FC41F20A613620FCF76BFC40F20771C8
:104490003720FCF766FC4FF483713820FCF761FC91
:1044A00040F207713920FCF75CFC40F202413C20ED
:1044B000FCF757FC40F60F413D20FCF752FC002171
:1044C0005020FCF74EFCEF215120FCF74AFC002164
:1044D0005220FCF746FC40F23F115320FCF741FC10
:1044E0004FF41C516020FCF73CFC01216120FCF7DB
:1044F00038FC00216A20FCF734FC00218020FCF706
:1045000030FC00218120FCF72CFC00218220FCF7EC
:1045100028FC00218320FCF724FC00218420FCF7E8
:1045200020FC00218520FCF71CFC10219020FCF7CA
:1045300018FC4FF4C0619220FCF713FC40F23311D9
:104540000720FCF70EFC83E48948808845F2084187
:1045500088427DD14FF480710120FCF702FC4FF4BA
:10456000E0610220FCF7FDFB41F230010320FCF783
:10457000F8FB00210420FCF7F4FB40F2072108209F
:10458000FCF7EFFB00210920FCF7EBFB00210A20E0
:10459000FCF7E7FB00210C20FCF7E3FB00210D20DA
:1045A000FCF7DFFB00210F20FCF7DBFB142008F0F9
:1045B000C8FB41F2B0611020FCF7D3FB01211120B0
:1045C000FCF7CFFB01211720FCF7CBFB4FF49C71CC
:1045D0001220FCF7C6FB4FF400611320FCF7C1FB6F
:1045E00009212920FCF7BDFB09212A20FCF7B9FB92
:1045F0000021A420FCF7B5FB00215020FCF7B1FB03
:10460000EF215120FCF7ADFB00215220FCF7A9FB64
:1046100040F23F115320FCF7A4FB4FF41C516020E3
:10462000FCF79FFB01216120FCF79BFB00216A2026
:10463000FCF797FB00218020FCF793FB00218120F1
:10464000FCF78FFB00218220FCF78BFB002100E0B0
:1046500024E08320FCF785FB00218420FCF781FB0C
:1046600000218520FCF77DFB13219020FCF779FBCE
:1046700000219220FCF775FB03219320FCF771FBCE
:104680004FF488719520FCF76CFB40F27311072002
:10469000FCF767FB322008F054FBB8E4344880880C
:1046A00041F2055188427DD100210720FCF759FBDA
:1046B000322008F046FB4FF48E711220FCF751FBBC
:1046C0000121A420FCF74DFB0F210820FCF749FB3A
:1046D00008210A20FCF745FB08210D20FCF741FBCF
:1046E00040F207713020FCF73CFB07213120FCF73A
:1046F00038FB40F203613220FCF733FB4FF4E061FA
:104700003320FCF72EFB40F202213420FCF729FB7A
:1047100002213520FCF725FB41F60F713620FCF70E
:1047200020FB40F207713720FCF71BFB00213820EB
:10473000FCF717FB00213920FCF713FB40F207714F
:104740003A20FCF70EFB00213B20FCF70AFB072177
:104750003C20FCF706FB00213D20FCF702FB322049
:1047600008F0EFFA01210720FCF7FBFA012101E034
:10477000A04000201720FCF7F4FA322008F0E1FAFC
:104780004FF4BD511020FCF7ECFA40F21721112034
:10479000FCF7E7FA4FF48F711220FCF7E2FA4FF4BE
:1047A000706100E098E01320FCF7DBFA00212A207A
:1047B000FCF7D7FA0A212920FCF7D3FA4FF49F71AE
:1047C0001220FCF7CEFA00215020FCF7CAFAEF21A4
:1047D0005120FCF7C6FA00215220FCF7C2FA40F241
:1047E0003F115320FCF7BDFA4FF41C516020FCF739
:1047F000B8FA01216120FCF7B4FA00216A20FCF725
:10480000B0FA00218020FCF7ACFA00218120FCF7EF
:10481000A8FA00218220FCF7A4FA00218320FCF7EB
:10482000A0FA00218420FCF79CFA00218520FCF7E7
:1048300098FA13219020FCF794FA4FF440719220DB
:10484000FCF78FFA05219320FCF78BFA00219520C5
:10485000FCF787FA00219720FCF783FA00219820C3
:10486000FCF77FFA4FF480710120FCF77AFA4FF4DD
:10487000E0610220FCF775FA41F238010320FCF7F1
:1048800070FA00210420FCF76CFA00210C20FCF7E0
:1048900068FA00210F20FCF764FA00212020FCF7C1
:1048A00060FA00212120FCF75CFA21210720FCF7A7
:1048B00058FA142008F045FA61210720FCF751FA54
:1048C000142008F03EFA40F273110720FCF749FA71
:1048D000142008F036FA5AE3FE4880884BF205515E
:1048E00088427CD100210846FCF73BFA00210846AB
:1048F000FCF737FA00210846FCF733FA0021084696
:10490000FCF72FFA0121A420FCF72BFA142008F061
:1049100018FA4FF41C516020FCF723FA40F20221F0
:104920000820FCF71EFA4FF405713020FCF719FA45
:1049300043F215713120FCF714FA40F20461322081
:10494000FCF70FFA40F616613320FCF70AFA42F240
:1049500011213420FCF705FA4FF4A8513520FCF75B
:1049600000FA48F207513620FCF7FBF941F2074103
:104970003720FCF7F6F941F203413820FCF7F1F952
:1049800020213920FCF7EDF91A219020FCF7E9F9F4
:1049900000211020FCF7E5F907211120FCF7E1F9CF
:1049A00000211220FCF7DDF900211320FCF7D9F9D2
:1049B000142008F0C6F94FF4E6611020FCF7D1F995
:1049C00040F237111120FCF7CCF9142008F0B9F9A6
:1049D0004FF4DC711220FCF7C4F9142000E085E0EC
:1049E00008F0AFF94FF470611320FCF7BAF9802199
:1049F0002A20FCF7B6F948212920FCF7B2F9142047
:104A000008F09FF94FF480710120FCF7AAF94FF4E8
:104A1000E0610220FCF7A5F941F238010320FCF720
:104A2000A0F940F202210820FCF79BF900210A209E
:104A3000FCF797F900210C20FCF793F900210D20D9
:104A4000FCF78FF930210E20FCF78BF90021502064
:104A5000FCF787F9EF215120FCF783F90021522060
:104A6000FCF77FF940F23F115320FCF77AF94FF43D
:104A70001C516020FCF775F901216120FCF771F9E8
:104A800000216A20FCF76DF911219020FCF769F9EB
:104A90004FF4C0619220FCF764F940F20241932088
:104AA000FCF75FF902219420FCF75BF9142008F071
:104AB00048F901210720FCF754F9142008F041F9C6
:104AC00061210720FCF74DF940F273110720FCF734
:104AD00048F900212020FCF744F900212120FCF7AF
:104AE00040F922210020FCF73CF950E27948808807
:104AF0004CF2055188427CD100210846FCF731F97F
:104B000000210846FCF72DF9142008F01AF90021BD
:104B10000846FCF726F900210846FCF722F9002197
:104B20000846FCF71EF900210846FCF71AF9012196
:104B3000A420FCF716F9142008F003F94FF41C51D7
:104B40006020FCF70EF940F606010820FCF709F991
:104B500040F203713020FCF704F901213120FCF709
:104B600000F904213220FCF7FCF84FF48171332066
:104B7000FCF7F7F84FF440713420FCF7F2F840F2FC
:104B800003113520FCF7EDF81F213620FCF7E9F87A
:104B900040F203713720FCF7E4F801213820FCF7DC
:104BA000E0F804213920FCF7DCF815219020FCF70F
:104BB000D8F84FF482611020FCF7D3F840F2472177
:104BC0001120FCF7CEF84FF4DE711220FCF7C9F883
:104BD0004FF460611320FCF7C4F8782008F0B1F8B6
:104BE0004FF480710120FCF7BCF84FF400710220F3
:104BF00000E052E0FCF7B5F841F230010320FCF789
:104C0000B0F808210A20FCF7ACF800210C20FCF7D2
:104C1000A8F820210E20FCF7A4F800210F20FCF7B3
:104C2000A0F800212020FCF79CF800212120FCF7AF
:104C300098F83D212A20FCF794F8142008F081F818
:104C40002D212920FCF78DF800215020FCF789F850
:104C50004DF2EF015120FCF784F800215220FCF7BF
:104C600080F840F23F115320FCF77BF800216120CF
:104C7000FCF777F800216A20FCF773F84FF44071D5
:104C80009220FCF76EF805219320FCF76AF84FF4A8
:104C900080710720FCF765F879E10E48808844F2BE
:104CA000315188427ED101210020FCF75AF80A20B8
:104CB00008F047F841F228611020FCF752F80E2165
:104CC0001220FCF74EF840F639211320FCF749F882
:104CD0000A2001E0A040002008F033F84021112014
:104CE000FCF73FF850211520FCF73BF80A2008F0AC
:104CF00028F81E211220FCF734F80A2008F021F8C9
:104D00004FF4B1511020FCF72CF842F63921132052
:104D1000FCF727F80A2008F014F84FF480710120FE
:104D2000FCF71FF84FF440710220FCF71AF841F22B
:104D300038010320FCF715F840F202210820FCF7A7
:104D400010F808210A20FCF70CF800213020FCF7AD
:104D500008F840F202413120FCF703F84FF4837168
:104D60003220FBF7FEFF40F203513320FBF7F9FF3F
:104D70004FF482713420FBF7F4FF40F2013135200B
:104D8000FBF7EFFF40F207713620FBF7EAFF40F236
:104D900005313720FBF7E5FF4FF402713820FBF7B0
:104DA000E0FF00E03EE040F60B713920FBF7D9FF51
:104DB00002214120FBF7D5FF4FF41C516020FBF787
:104DC000D0FF01216120FBF7CCFF4FF4047190204C
:104DD000FBF7C7FF4FF485719220FBF7C2FF042158
:104DE0009320FBF7BEFF4FF48071A020FBF7B9FFC3
:104DF00001210720FBF7B5FF21210720FBF7B1FFB9
:104E000023210720FBF7ADFF33210720FBF7A9FF84
:104E100040F233110720FBF7A4FF0021A020FBF78D
:104E2000A0FFB4E0FE48808844F235518842F8D1B2
:104E300030211520FBF795FF10219A20FBF791FFF9
:104E400020211120FBF78DFF43F228411020FBF7B2
:104E500088FF02211220FBF784FF41F23801132062
:104E6000FBF77FFF282007F06CFF12210846FBF7B5
:104E700078FF282007F065FF43F220411020FBF760
:104E800070FF43F238011320FBF76BFF462007F059
:104E900058FF00213020FBF764FF40F2024131202F
:104EA000FBF75FFF40F207313220FBF75AFF4FF468
:104EB00041713320FBF755FF04213420FBF751FFEC
:104EC00040F201413520FBF74CFF40F207713620DC
:104ED000FBF747FF40F205313720FBF742FF4FF465
:104EE000C2613820FBF73DFF4FF4C2613920FBF768
:104EF00038FF4FF480710120FBF733FF4FF440710E
:104F00000220FBF72EFF41F230010320FBF729FFBF
:104F100040F608010820FBF724FF08210A20FBF7D0
:104F200020FF4FF41C516020FBF71BFF0121612083
:104F3000FBF717FF4FF49F719020FBF712FF4FF420
:104F400080719220FBF70DFF4FF480719320FBF7E7
:104F500008FF4FF44051A020FBF703FF1021A320CE
:104F6000FBF7FFFE01210720FBF7FBFE21210720B5
:104F7000FBF7F7FE23210720FBF7F3FE3321072081
:104F8000FBF7EFFE40F233110720FBF7EAFE0120AA
:104F9000FCF78EFA0120A34908604FF6FF70FCF77A
:104FA00002FC21B000BD2DE9FC4F05460E46174618
:104FB0009846DDF82C90002001909948808846F6AC
:104FC0000401884229D196488079012825D1AB4631
:104FD000354693480088C01B401E86B2474690481D
:104FE0000088A0EB0B00401E1FFA80F800208C49BF
:104FF00088712A2048812B20888143463A463146D1
:105000002846CDF80090FFF7CEFF01208449887133
:105010002B2048812A2088811CE0781B401C80B20C
:105020000190344614E021462846FBF7CCFEFBF7FE
:10503000ADFE4FF0000A06E07B48A0F800900AF1B0
:1050400001001FFA80FA01988245F5DB601C84B2EA
:105050004445E8DDBDE8FC8F2DE9F84F07460D46D5
:1050600090469946DDF828B0A8EB0700401C1FFACF
:1050700080FAA9EB0500401C80B20090002414E0E7
:10508000281981B23846FBF79EFEFBF77FFE00260B
:1050900007E004FB0A603BF8100063490880701CBD
:1050A00086B25645F5DB601C84B200988442E7DB8B
:1050B000BDE8F88F2DE9FF4F84B081468A46002075
:1050C000039002900698A0EB09050798A0EB0A064A
:1050D000CDF80490CDF800A0002D01DD012705E0FA
:1050E0000DB9002702E04FF0FF376D42002E02DDC0
:1050F0004FF0010806E016B94FF0000802E04FF04B
:10510000FF387642B54201DD2C4600E034464FF0D0
:10511000000B21E0009A91B2019A90B2FCF72FF9AE
:105120000398284403900298304402900398A042C8
:1051300005DD0398001B0390019838440190029804
:10514000A04205DD0298001B0290009840440090A8
:105150000BF101001FFA80FB601C8345DADD08B00B
:10516000BDE8F08FF0B504460D4616461F462B46A7
:10517000324629462046FFF79DFF3B4622462946F8
:105180002046FFF797FF3B46324639462046FFF759
:1051900091FF3B46324629463046FFF78BFFF0BD74
:1051A0002DE9F04306460F4690460024454603206D
:1051B000A0EB480943E07A1B91B2321990B2FCF798
:1051C000DEF83A1B91B2721990B2FCF7D8F83A198E
:1051D00091B2721990B2FCF7D2F87A1991B23219E1
:1051E00090B2FCF7CCF87A1991B2321B90B2FCF76E
:1051F000C6F83A1991B2721B90B2FCF7C0F87A1B4C
:1052000091B2321B90B2FCF7BAF83A1B91B2721B02
:1052100090B2FCF7B4F8641CB9F1000F0ADA05E0AB
:10522000A0400020A88242420020006CA000801D07
:10523000814404E0601B80000A3081446D1EAC4252
:10524000B9DDBDE8F0832DE9F84F80460E461746DC
:105250001C46B3462046E31704EB5373DB1021468C
:105260004FEAE47C04EB5C7C4FEAEC0CA4EBCC0C46
:10527000BCF1000F02D04FF0010C01E04FF0000C28
:105280006344224604EBD27C4FEA6C0C03FB0CF324
:10529000DBB20093A7F12000C7B2002556E00C2C2A
:1052A00007D107EB47009F4901EB800010F80590FC
:1052B00013E0102C05D19C4800EB071010F8059066
:1052C0000BE0182C07D107EBC700984901EB8000D1
:1052D00010F8059001E0BDE8F88F4FF0000A2FE0CC
:1052E00009F0800030B19248028831464046FCF710
:1052F00054F807E00A9828B98E480288314640469B
:10530000FCF74BF84FEA49604FEA1069701C86B20F
:1053100089484088B04200DCDDE7A6EB0B00A042E4
:105320000AD15E4608F101001FFA80F88248008821
:10533000404500DCCFE706E00AF1010000F0FF0A7B
:10534000BAF1080FCCDB00BF681CC5B200988542DB
:10535000A5DB00BFBFE710B50246012000E05043C7
:105360000B1EA1F10104E1B2F9D110BD2DE9FF4FEF
:1053700081B0074691461E460E9D4FF0000A00245C
:1053800039E0301B401EC1B20A20FFF7E4FFB9FB31
:10539000F0F00A21B0FBF1F201FB1208BAF1000FA4
:1053A00016D1701EA04213DDB8F1000F0ED10020FF
:1053B000AB4605EBDB71491001FB0471009088B22C
:1053C0002B4620220299FFF73EFF12E04FF0010A20
:1053D0000020AB4605EBDB71491001FB0471009026
:1053E00088B208F13001CAB22B460299FFF72BFFB1
:1053F00000BF601CC4B2B442C3DB05B0BDE8F08F8F
:105400002DE9FF4F82B0064692461F46DDE90F4860
:105410000020019000254DE0781B401EC1B20A20FB
:10542000FFF799FFBAFBF0F00A21B0FBF1F201FBA4
:105430001209019850BB781EA84227DDB9F1000F70
:1054400022D108F0800078B108F00100A34604EBF7
:10545000DB71491001FB0561009088B223463022C0
:105460000399FFF7F0FE0EE008F00100A34604EBFD
:10547000DB71491001FB0561009088B223462022B0
:105480000399FFF7E0FE13E00120019008F001000E
:10549000A34604EBDB71491001FB0561009088B263
:1054A00009F13001CAB223460399FFF7CCFE00BFD1
:1054B000681CC5B2BD42AFDB06B0BDE8F08F2DE978
:1054C000F84704460D4690469946DDE9096704F021
:1054D000FF0A08EB04001FFA80F809EB05001FFA29
:1054E00080F916E0444502DB5446A81985B24D45C3
:1054F00000DB14E0002000903A783346294620462D
:10550000FFF7A1FE304606EBD07104EB61018CB2CF
:105510007F1C38787E2802DC38782028E2DA00BF49
:10552000BDE8F8874A230308BE270308AE2D030809
:105530002000002022000020A040002010B500F034
:10554000BBF810BD70B50446002600F0D4F825461F
:10555000E11704EB11610912A02202EB4101C8B26C
:1055600000F075F900F008F9E11704EB1161091278
:10557000A4EB0121C8B200F06AF900F0FDF800F0D8
:10558000BAF8A12000F063F900F0F6F8002000F06E
:105590008BF9064600F0D1F8304670BD70B5044670
:1055A0000E4600F0A8F82546E11704EB1161091238
:1055B000A02202EB4101C8B200F049F900F0DCF88A
:1055C000E11704EB11610912A4EB0121C8B200F04C
:1055D0003EF900F0D1F8304600F039F900F0CCF88F
:1055E00000F0ABF80A2007F0ACFB70BD2DE9F041EC
:1055F00005460E461746002409E0E20026FA02F2AC
:10560000D1B22A1990B2FFF7C9FF601CC4B2BC42E4
:10561000F3DBBDE8F0812DE9F04107460C4600269A
:10562000002509E036023919491B491E88B2FFF7E7
:1056300089FF0644681CC5B2A542F3DB3046BDE8CD
:10564000F08110B5FF20FFF77DFF0446552C01D1F6
:10565000002010BD5521FF20FFF7A0FFFF20FFF71E
:1056600071FF0446552C01D10020F2E70120F0E73C
:1056700070B506460C46154608E03046721C96B2D8
:10568000FFF760FF04F8010B681E85B2002DF4D10E
:1056900070BD70B505460C46164606E021782846D2
:1056A000FFF77CFF681C85B2641C301EA6F1010167
:1056B0008EB2F3D170BD00001CB50121022005F0AF
:1056C00025FB4FF44070009001208DF8040003206A
:1056D0008DF8050000208DF8060001208DF80700E8
:1056E0006946894805F074F80120884908608849AE
:1056F000C1F8A4021CBD10B58348006820F4402006
:10570000814908600846006840F480200860012054
:105710007E49091D08607E49C1F8A002042007F0F7
:10572000E6FA00207949091D0860042007F0DFFA35
:1057300000207749C1F8A00210BD10B5724800687A
:1057400020F44020704908600846006840F480203A
:10575000086000206D4908606D49C1F8A40204206A
:1057600007F0C5FA0120694908606949C1F8A40237
:10577000042007F0BCFA10BD10B500246248006890
:1057800020F4402060490860084600680860012055
:105790005E49091D086007F0AAFA01205C49C1F8BA
:1057A000A00207F0A4FA07E0601CC4B2FA2C03DDE3
:1057B000FFF7C3FF012010BD54487C380068002863
:1057C000F2D15249086000BFF5E710B500204F49FB
:1057D00008604D48006820F440204B4908600846A6
:1057E000006840F48020086000204949C1F8A40204
:1057F000022007F07CFA012044490860022007F0EB
:1058000076FA00204249C1F8A00210BD10B5002070
:105810003E4908603C48006820F440203A4908604E
:105820000846006840F48020086001203849C1F82B
:10583000A402022007F05BFA01203449086002202C
:1058400007F055FA00203249C1F8A00210BD70B52A
:1058500004462D48006820F440202B490860084683
:10586000006840F480200860002028490860002576
:1058700017E0E0092549091D08606006040E0220B2
:1058800007F035FA01202249C1F8A002022007F0F2
:105890002EFA00201D490860022007F028FA681C33
:1058A000C5B2082DE5DB70BD70B50546002416486D
:1058B000006820F440201449086008460068086029
:1058C000002616E0002011490860022007F00FFAB8
:1058D00001200F49C1F8A0026006040E0B487C3875
:1058E000006808B1601CC4B2012007F000FA701C07
:1058F000C6B2082EE6DB15B9FFF788FF01E0FFF717
:1059000064FF204670BD000000040240A0824042B7
:105910000080404210B5052007F0E9F910BD0120D4
:105920007E4908607E49C1F8AC02704710B57D48D9
:10593000006820F440007B4908600846006840F495
:10594000800008600120784908607849C1F8800229
:10595000142007F0CCF9002073490860FFF7DAFF44
:1059600000207249C1F8800210BD10B56D48006872
:1059700020F440006B4908600846006840F480004D
:105980000860012065490860142007F0B0F9002084
:105990006349C1F8AC02FFF7BDFF0120624908600E
:1059A00010BD10B500245F48006820F440005D4938
:1059B000086008460068086001205B4908605B4990
:1059C000C1F880020AE0601CC4B2FA2C03DDFFF7C4
:1059D000CCFF012010BD012007F089F95248803822
:1059E00000680028EFD14D49086000BFF2E710B50C
:1059F00000204A4908604B48006820F440004949AB
:105A000008600846006840F480000860FFF782FFE5
:105A100000204349C1F8AC02FFF77CFF01203F4959
:105A20000860FFF777FF00204049C1F8800210BDF1
:105A300010B50020394908603A48006820F4400059
:105A4000384908600846006840F480000860FFF7A5
:105A500061FF01203249C1F8AC02FFF75BFF012072
:105A60002E490860FFF756FF00203049C1F8800238
:105A700010BD70B504462B48006820F44000294949
:105A800008600846006840F4800008600020234950
:105A90000860FFF73FFF002511E0E0092249086098
:105AA0006006040E01202149C1F88002FFF732FF91
:105AB00000201A490860FFF72DFF681CC5B2082DA9
:105AC000EBDB70BD70B5054600241648006820F475
:105AD000400014490860084600680860002613E08A
